:100000000C942A000C9434000C9434000C943400AA
:100010000C9434000C9434000C9434000C94340090
:100020000C9434000C9434000C9434000C94340080
:100030000C9434000C9434000C9434000C94340070
:100040000C9434000C9434000C9434000C94340060
:100050000C94340011241FBECFE5D4E0DEBFCDBF29
:100060000E9436000C9445010C94000017BA0E94BF
:1000700056000E945A000E945E00B09B05C00E947C
:10008000620015BA1BBAF9CFB19B05C00E94CB0024
:100090001BBA12BAF2CFB29B05C00E94F80015BA83
:1000A00012BAEBCF15BA12BA1BBAE7CF80E881BB00
:1000B00012BA08958FE084BB85BB08958FEF8ABB89
:1000C0001BBA089580E882BBE3ECF9E03197F1F7C1
:1000D00000C0000012BAE3ECF9E03197F1F700C07C
:1000E0000000FFE72FE432E1F15020403040E1F71B
:1000F00000C0000082BBE1EEF4E03197F1F700C0F0
:10010000000012BAE5EAFEE03197F1F700C0000006
:10011000FFE72FE432E1F15020403040E1F700C02A
:10012000000082BB12BAE7E8F3E13197F1F700C0B3
:100130000000FFE72FE432E1F15020403040E1F7CA
:1001400000C0000082BBE7E8F3E13197F1F700C09F
:10015000000012BAFFE72FE432E1F15020403040B6
:10016000E1F700C0000082BB85EA9EE00197F1F74D
:1001700000C0000012BAE7E8F3E13197F1F700C0E0
:100180000000FFE72FE432E1F15020403040E1F77A
:1001900000C00000089582E085BB2FE78FE492E164
:1001A000215080409040E1F700C0000084E085BB12
:1001B0002FE78FE492E1215080409040E1F700C0AA
:1001C000000088E085BB2FE78FE492E1215080405A
:1001D0009040E1F700C0000081E085BB2FE78FE48D
:1001E00092E1215080409040E1F700C00000089566
:1001F00082E08BBB2FE78FE492E12150804090405A
:10020000E1F700C0000084E08BBB2FE78FE492E1B0
:10021000215080409040E1F700C0000088E08BBB97
:100220002FE78FE492E1215080409040E1F700C039
:10023000000080E18BBB2FE78FE492E121508040EA
:100240009040E1F700C0000080E28BBB2FE78FE415
:1002500092E1215080409040E1F700C0000081E031
:100260008BBB2FE78FE492E1215080409040E1F773
:1002700000C000001BBA2FE78FE492E121508040BC
:0E0280009040E1F700C000000895F894FFCF11
:00000001FF
